:02000004080AE8
:1000000000000A08841D0A08000006000600050119
:080010000402E80500000000F5
:0400180004180A08B6
:10001C0009480A4908B5884205D0094A824202D0EB
:10002C00121A01F093FB0748074A0021121A01F03B
:10003C0098FB064808BD00BF00000020F41C0A080D
:10004C006800002068000020FC050020FC05002052
:10005C0070B500F00FFE074B074C1E46E41AA408BF
:10006C000025A54204D056F8253098470135F8E70D
:10007C0070BD00BFB01C0A08E41C0A0800F02CB8C4
:10008C0008B500F041F8BDE8084000F0B5BD00F03F
:10009C00B7BB00F0BDBB0078B0FA80F040097047E8
:1000AC00012303707047000010B50849044600F0A6
:1000BC00BAFC08B1002205E00549204600F0B3FC6B
:1000CC0010B10122034B1A60012010BD18180A0848
:1000DC001E180A086C00002008B50121072001F049
:1000EC0027F90649064A074800F006FE00F0EEFE26
:1000FC00BDE808404FF4E13100F0CEBEB5000A086F
:10010C0023180A08D90C0A0810B5114C206800F005
:10011C0077F9104B1B6813B1206800F0D7F80E4C20
:10012C004FF47A73216891FBF3F203FB121353B96A
:10013C00072001F027F9B0FA80F10720490901F0F6
:10014C0008F90123236023680133236010BD00BF2D
:10015C00700000206C0000207400002008B500F036
:10016C00A1F900F00FF8014B186008BD70000020D9
:10017C0010B50446C82340F8043B00F031FB204680
:10018C0010BD000038B5064C23683BB91420FFF7AE
:10019C007EFF054608B1FFF7EBFF2560206838BDF0
:1001AC00780000202DE9F0410C4688B0054600F09F
:1001BC008DFE404900F07AFC00F088FE216800F0CA
:1001CC0088FC00F047FF216800F083FC00F0AAF9DE
:1001DC003949684600F0AFFB384904A800F0ABFB86
:1001EC0000F0A0F90646364F002400F09BF9C6EB50
:1001FC00000800F02FFF03681B6998470028C8BF50
:10020C00012400F08FF9386000F0E2FA002CECD0F9
:10021C00B8F5FA6FE9DB00F01DFF03681B6998471E
:10022C0000283BDD00F052FE264900F03FFC286818
:10023C0000F090FC0026012400F00CFF03681B6901
:10024C00984728B3694604A800F0D7FB002818BFCC
:10025C00002400F0FFFE03685B6998473146C5B285
:10026C00684600F0FBFB854205D1294604A800F046
:10027C00B7FB013604E0114904A800F089FB002605
:10028C00002DD9D000F022FE294600F013FCD3E754
:10029C0000F01CFE0C4900F01CFC00E0012404A83A
:1002AC0000F002FB684600F0FFFA204608B0BDE8FB
:1002BC00F08100BF2B180A0835180A08E11A0A0841
:1002CC00240500203D180A0840180A081FB50446EA
:1002DC0000F0C0FE4FF4E13100F0B6FE3D49684637
:1002EC0000F029FB69462046FFF75CFF684600F0EA
:1002FC00DBFA3949684600F01EFB69462046FFF7D9
:10030C0051FF684600F0D0FA3449684600F013FB00
:10031C0069462046FFF746FF684600F0C5FA3049AB
:10032C00684600F008FB69462046FFF73BFF68462D
:10033C0000F0BAFA2B49684600F0FDFA69462046EF
:10034C00FFF730FF684600F0AFFA2749684600F027
:10035C00F2FA69462046FFF725FF684600F0A4FA3A
:10036C002249684600F0E7FA69462046FFF71AFF73
:10037C00684600F099FA1E49684600F0DCFA6946B6
:10038C002046FFF70FFF684600F08EFA19496846C1
:10039C0000F0D1FA69462046FFF704FF684600F0EA
:1003AC0083FA1549684600F0C6FA69462046FFF7FD
:1003BC00F9FE684600F078FA1049684600F0BBFA7E
:1003CC0069462046FFF7EEFE684600F06DFA04B071
:1003DC0010BD00BF43180A0846180A0853180A082B
:1003EC005D180A086A180A088C180A08B1180A0855
:1003FC00C1180A08CB180A08D5180A08E0180A0808
:10040C0010B500F063FD03681B69984700281EDDDA
:10041C0000F05CFD204900F049FB642000F09AFBE1
:10042C0000F054FD03681B69984780B100F04EFD45
:10043C0003685B699847C4B200F048FD214600F0A0
:10044C0039FB00F007FE214600F034FBE8E700F032
:10045C0001FE03681B69984700281BDD00F036FD80
:10046C000E4900F023FB0A2000F074FB00F0F2FDB3
:10047C0003681B69984768B100F0ECFD03685B6981
:10048C009847C4B2002CF1D000F020FD214600F0BA
:10049C0011FBEBE710BD00BF41180A08A5190A08AB
:1004AC0000F000B808B5024B1B681B68019308BD2F
:1004BC00B001060808B5024B1B689B68019308BD88
:1004CC00B001060808B5024B1B68DB68019308BD38
:1004DC00B001060808B5024B1B681B69019308BDE7
:1004EC00B001060808B5024B1B685B69019308BD97
:1004FC00B001060808B5024B1B68DB69019308BD07
:10050C00B401060808B5024B1B681B6A019308BDB1
:10051C00B401060808B5024B1B685B68019308BD63
:10052C009C01060808B5024B1B685B69019308BD6A
:10053C009C01060808B5024B1B685B6C019308BD57
:10054C00D001060808B5024B1B689B6C019308BDD3
:10055C00D001060808B5024B1B689B69019308BDC6
:10056C00C401060808B5024B1B685B6A019308BD01
:10057C00C401060808B5024B1B689B6A019308BDB1
:10058C00C401060808B5024B1B68DB6A019308BD61
:10059C00C401060808B5024B1B681B6B019308BD10
:1005AC00C401060808B5024B1B685B6B019308BDC0
:1005BC00C401060808B5024B1B689B6B019308BD70
:1005CC00C401060808B5024B1B681B6C019308BDDF
:1005DC00C401060808B5024B1B68DB6C019308BD0F
:1005EC00C401060808B5024B1B681B6E019308BDBD
:1005FC00AC01060808B5024B1B685B6E019308BD85
:10060C00AC01060808B5024B1B689B6E019308BD34
:10061C00AC01060808B5024B1B68DB6E019308BDE4
:10062C00AC01060808B5024B1B681B6F019308BD93
:10063C00AC01060808B5024B1B685B6F019308BD43
:10064C00AC01060808B5034B1B68D3F88030019346
:10065C0008BD0000AC01060808B5024B1B681B68FE
:10066C00019308BDD801060808B5024B1B685B68EE
:10067C00019308BDD801060808B5024B1B681B691D
:10068C00019308BDD801060808B5024B1B685B69CD
:10069C00019308BDD801060808B5024B1B689B697D
:1006AC00019308BDD801060808B5024B1B68DB692D
:1006BC00019308BDD801060808B5024B1B681B6ADC
:1006CC00019308BDD801060808B5024B1B689B6C4A
:1006DC00019308BDC001060808B5024B1B685B6896
:1006EC00019308BDA401060808B5024B1B685B69A1
:1006FC00019308BDA401060808B5034B1B68D3F889
:10070C009030019308BD0000A401060808B5034B06
:10071C001B68D3F89C30019308BD0000A4010608A7
:10072C0008B5024B1B685B68019308BDC80106083D
:10073C0008B5024B1B689B68019308BDC8010608ED
:10074C0008B5024B1B68DB68019308BDC80106089D
:10075C0008B5024B1B681B69019308BDC80106084C
:10076C0008B5024B1B685B69019308BDC8010608FC
:10077C0008B5024B1B689B69019308BDC8010608AC
:10078C0008B5024B1B68DB69019308BDC80106085C
:10079C0008B5024B1B681B6A019308BDC80106080B
:1007AC0008B5024B1B681B6B019308BDC8010608FA
:1007BC0008B5024B1B685B6B019308BDC8010608AA
:1007CC0008B5024B1B685B68019308BDCC01060899
:1007DC0008B5024B1B689B68019308BDCC01060849
:1007EC0008B5024B1B68DB69019308BDCC010608F8
:1007FC0008B5024B1B68DB6B019308BDCC010608E6
:10080C0008B5024B1B681B68019308BDA0010608C4
:10081C0008B5024B1B685B68019308BDA001060874
:10082C0008B5024B1B689B68019308BDA001060824
:10083C0070B504460E46002540F8085FFFF77AFEB7
:10084C0030462670FFF756FE6560204670BD007876
:10085C00FFF758BE10B50446006818B1FFF7D8FF73
:10086C000023236010BD10B50446FFF7F3FF2046AC
:10087C0010BD00004FF6FF7310B5084C002020602F
:10088C00A080A07120816381FFF726FF2046BDE880
:10089C001040034A034900F0E1BD00BF7C0000207A
:1008AC006800002073080A0810B504460068FFF7BA
:1008BC00AFFF204610BD10B50446006808B1FFF725
:1008CC00A7FF00232360A360636010BD38B5044606
:1008DC000D4600680131FFF7A3FF10B184E8210039
:1008EC00012038BD10B50368044613B143688B4230
:1008FC0007D22046FFF7EAFF20B1A3680BB92268A4
:10090C001370012010BD70B50E46114604461546F5
:10091C00FFF7E8FF18B92046FFF7CDFF09E02A469C
:10092C003146A560206800F011FF2268A368002101
:10093C00D154204670BD38B5002304460360436093
:10094C00836003730D4639B1084600F04DFF29460C
:10095C0002462046FFF7D7FF204638BD884210B527
:10096C000B46044607D0096819B19A68FFF7CBFF0C
:10097C0001E0FFF7A0FF204610BD10B50446002390
:10098C000360436083600373FFF7E8FF204610BDEC
:10099C0038B505460C4641B1084600F025FF214606
:1009AC0002462846FFF7AFFF01E0FFF784FF284619
:1009BC0038BD70B504460E4609B9002070BD6AB149
:1009CC008368D5182946FFF78DFF0028F5D02068DD
:1009DC00A3683146184400F0FFFEA560012070BDED
:1009EC0007B500238DF80410012201A98DF80530FC
:1009FC00FFF7DFFF03B05DF804FB024600680B68ED
:100A0C0008B15BB905E023B1896811B1187840428F
:100A1C00704738B1936823B100787047194600F0DD
:100A2C00D1BE1846704708B582680B4612B919B981
:100A3C00012008BD11B90368187802E0006800F0C5
:100A4C00C1FEB0FA80F0400908BD83688B4203D91F
:100A5C00006810B1405C704700207047FFF7F5BF8D
:100A6C00F8B506460D468F180024BD420CD03368ED
:100A7C0015F8011B9B6830469847002801DB04449D
:100A8C00F3E7002C08BF04462046F8BD70B50546B8
:100A9C000C46084649B100F0A7FE2B6802462146D9
:100AAC002846BDE87040DB68184770BD08B5FFF7F5
:100ABC00EDFF08BD03689B68184738B50D21054646
:100ACC00FFF7F8FF0A2104462846FFF7F3FF2044FE
:100ADC0038BD38B50546FFF7D9FF04462846FFF761
:100AEC00ECFF204438BD012A98BF0A2230B50B46D2
:100AFC008BB000218DF824100DF12304B3FBF2F51B
:100B0C0005FB1233DBB2092B94BF30333733DBB226
:100B1C00214604F801392B46002DEFD1FFF7B6FF23
:100B2C000BB030BD00231A4619464068FFF718BEBB
:100B3C00014A024B1A607047B01A0A08880000205C
:100B4C00024B1A68024B1A60704700BF000000206D
:100B5C008C0000200021FFF7C7BD10B58368044648
:100B6C0013B1032201469847204610BD10B5044628
:100B7C00FFF7F3FF204610BD034800238360034AB0
:100B8C00034900F06BBC00BF9000002068000020FF
:100B9C00790B0A0808B5144B33B100F097F90368C8
:100BAC001B699847002816DC104B33B100F052FA41
:100BBC0003681B699847002810DC0D4B0BB1AFF391
:100BCC0000800C4B7BB100F0BDF903681B699847A2
:100BDC00002806DC08BDAFF30080E5E7AFF300802A
:100BEC00EBE7AFF3008008BD000000000000000040
:100BFC00000000000000000008B5FFF7CBFFFFF776
:100C0C0091FC014B186008BD240500200248034AE2
:100C1C000349121A00F09ABD004002400440024001
:100C2C00F01C0A0807B5002300931A466FF07701F1
:100C3C00FFF76CFD03B05DF804FB000007B54388BB
:100C4C000A2B08D0502B09D1094B1B683BB103B0C0
:100C5C005DF804EB1847FFF7E5FF06E0002300936F
:100C6C001A466FF07701FFF751FD03B05DF804FBF6
:100C7C00A000002038B5104C104D2368AB42104B2F
:100C8C000CBF012200221A7002D0FFF7BFFF2560B3
:100C9C00FFF740FC044600F06DFD0A4B13B12046F3
:100CAC00AFF3008000210748FFF7A2FDBDE83840F4
:100CBC0000210548FFF720BD004002401E1C279A6A
:100CCC00A400002000000000490C0A0810B588B0F0
:100CDC0004466846FFF72FFE694604A8FFF74DFE51
:100CEC0004A8A047044604A8FFF7DEFD6846FFF7FA
:100CFC00DBFD204608B010BDF0B507460E46154684
:100D0C0085B0102422460021684600F02AFD0022FE
:100D1C0069461046ADF80040029703960195FFF71F
:100D2C004FFD05B0F0BD704710B50446182100F01A
:100D3C00A3FB204610BDF8B50F4600F10806051DB3
:100D4C00002416F8011D0A223846FFF7CCFEAE42ED
:100D5C00044407D0002CF4D02E213846FFF7AAFE0D
:100D6C000444EEE72046F8BD10B50446044B1122AE
:100D7C0040F8043B002100F0F4FC204610BD00BFFD
:100D8C004C1B0A080346074A10B543F8042B01F123
:100D9C00100251F8044B914243F8044BF9D10A78F4
:100DAC001A7010BD4C1B0A08024A416002600422F2
:100DBC00027570474C1B0A0810B59DF8084044EAB0
:100DCC00032343EA024242EA0161042341600375B2
:100DDC0010BD000037B5044D05609DF81850009506
:100DEC00FFF7EAFF03B030BD4C1B0A084174704793
:100DFC00704708B50021007CFFF74EFC30EA20005C
:100E0C0028BF4FF0FF3008BD08B50121007CFFF76B
:100E1C0043FC30EA200028BF4FF0FF3008BD08B576
:100E2C00007CFFF731FC20EAE07008BD08B5007CBF
:100E3C00FFF722FC20EAE07008BD007CFFF73CBC09
:100E4C0010B50446142100F017FB204610BD38B530
:100E5C000446007C0D46FFF717FC002801DC607C83
:100E6C0028B12946207CFFF71FFC20EAE07038BD32
:100E7C0010B50446002363604FF47A73A360054BEE
:100E8C00084623600123217463741146FFF7E4FBC9
:100E9C00204610BD601B0A080022007CFFF7E4BB53
:100EAC0010B504461422002100F05BFC054B2046D3
:100EBC006360054BE36040F201132381812323829D
:100ECC0010BD00BF2D010020AC00002030B50E4D30
:100EDC0087B001A8FFF7E4FF296811F0010410D1D5
:100EEC002846FFF7D8F860B101AA21460748FFF75A
:100EFC00BFFF2846FFF7D4F8054A0649034800F01F
:100F0C00ADFA024807B030BDA80000203002002026
:100F1C0068000020FD0D0A0810B5044614220021BB
:100F2C0000F01FFC054B20466360054BE36040F26C
:100F3C00011323818123238210BD00BFE002002016
:100F4C004802002010B50E4C86B001A8FFF7E4FF54
:100F5C002368DB0710D42046FFF79DF860B101AA87
:100F6C0001210848FFF784FF2046FFF799F8064A4D
:100F7C000649044800F072FA024806B010BD00BFE2
:100F8C0044020020CC02002068000020FD0D0A085D
:100F9C0070474174704708B5007CFFF713FB20EADB
:100FAC00E07008BD08B5007CFFF7E4FA20EAE070B9
:100FBC0008BD08B5007CFFF7EDFA30EA200028BF29
:100FCC004FF0FF3008BD08B5007CFFF7DBFA30EAC4
:100FDC00200028BF4FF0FF3008BD007CFFF7E2BABD
:100FEC0010B50446142100F047FA204610BD70B528
:100FFC00457C04460E4625B9007CFFF7E3FA002831
:10100C0005DD3146207CBDE87040FFF7ABBA2846C1
:10101C0070BD000010B504460846114600226260FF
:10102C004FF47A72A260054A207422600122627425
:10103C001A46FFF78FFA204610BD00BF901B0A0816
:10104C000023007CFFF7C6BA0022FFF7F9BF007C33
:10105C00FFF7B0BA38B50C4D296811F0010411D165
:10106C002846FFF718F868B1084A2146084B09488A
:10107C00FFF7D0FF2846FFF713F8074A0749054842
:10108C0000F0ECF9034838BD7C04002080040020FB
:10109C00F8030020E4030020680000209D0F0A08DC
:1010AC007047F8B5064615460C468F18BC4206D05C
:1010BC00336814F8011B9B6830469847F6E72846BE
:1010CC00F8BD0022007CFFF78DBA0021007CFFF7F1
:1010DC0091BA0021007CFFF795BA0021007CFFF744
:1010EC0099BA0021007CFFF79DBA10B50446142173
:1010FC0000F0C2F9204610BD10B504460023636011
:10110C004FF47A73A360044B217408462360114694
:10111C00FFF798FA204610BDC01B0A080021007C7E
:10112C00FFF788BA002211464068FFF711BBF0B5F3
:10113C00164689B011220F460446002103A800F080
:10114C0010FB304600F050FB0025009581B27B6807
:10115C0003AA3046FFF7B8FA20B129462046FFF71C
:10116C0023FE03E003A92046FFF70CFE204609B03E
:10117C00F0BD002211464068FFF70ABB0022114661
:10118C004068FFF715BB00224068FFF709BB00223F
:10119C0081F001014068FFF7F3BA00231A461946A3
:1011AC004068FFF7E5BA002211464068FFF7C0BA65
:1011BC00002202214068FFF7C3BA00231A46406898
:1011CC00FFF7AEBA024B04225A60024A1A6070470B
:1011DC0004050020E81B0A0800231A464068FFF7A4
:1011EC009FBA002202214068FFF7AABA00221146DA
:1011FC004068FFF79DBA002211464068FFF7A8BA75
:10120C0000231A4619464068FFF7AABA00231A466B
:10121C0019464068FFF7ACBA002281F00101406822
:10122C00FFF7AEBA00224068FFF7BABA00221146A7
:10123C004068FFF7BDBA002211464068FFF7A8BA14
:10124C0070B516468EB0044608A8FFF78DFD112226
:10125C00002103A800F085FA304600F0C5FA0025FD
:10126C000A4B009581B25B6803AA3046FFF72CFA53
:10127C0020B129462046FFF797FD03E003A920463D
:10128C00FFF780FD20460EB070BD00BF04050020A6
:10129C00024B034A1A6000225A6070470C0500206A
:1012AC001C1C0A0810B50446806808B1FFF74AF9FF
:1012BC00204610BD70B51A4E0446316811F0010578
:1012CC000FD13046FEF7E7FE58B129461548FFF717
:1012DC00AFFA3046FEF7E4FE134A1449114800F009
:1012EC00BDF81048FFF7B3FA28B1A4F10D03022B97
:1012FC0001D8002070BD00F08BF8FFF70FFF08B18C
:10130C00012CF6D9FFF7A6FEFFF7A1FE18B1A4F148
:10131C001203012BEDD9172C8CBF0020012070BDBE
:10132C00140500201805002068000020B1120A08DE
:10133C00172838B504460D460AD8FF2908D0FFF700
:10134C00B9FF28B129462046BDE83840FFF7B2B8AE
:10135C0038BD38B504460D46FFF7B4F8FF2810D059
:10136C00062804D84D2323FA00F0C30709D42046DD
:10137C00FFF7A0FF28B129462046BDE83840FFF70B
:10138C00A9B838BD10B50446FFF79CF80438C0B2B4
:10139C00012808D92046FFF78DFF20B12046BDE873
:1013AC001040FFF79FB8002010BD000013B5084C8B
:1013BC0000231A46194600932046FFF70BFD2046E2
:1013CC00044A054902B0BDE8104000F047B800BF20
:1013DC002805002068000020330D0A0870B504466B
:1013EC0014252A46094E002100F0BBF92580202542
:1013FC003146A5602561284600F040F83146606012
:10140C00284600F03BF8E060204670BD481C0A08F6
:10141C0030B50E4D87B0296811F0010413D1284660
:10142C00FEF739FE78B101A8FFF7D8FF01AA2146D3
:10143C000748FFF761FE2846FEF732FE054A0649CB
:10144C00034800F00BF8024807B030BD40050020FF
:10145C004405002068000020AD100A080B46014628
:10146C00184600F065B90000024B1868BFF35F8F97
:10147C00704700BF58050020FEF70BBE00F000B807
:10148C0010B5002814BF044601242046FFF7B8F914
:10149C0020B9FFF7E9FF08B18047F6E710BD00005F
:1014AC00184B1A68D1075CBF01221A60164B1A68D8
:1014BC00D2075CBF01221A60144B1A68D0075CBFBC
:1014CC0001221A60124B1A68D1075CBF01221A6004
:1014DC00104B1A68D2075CBF01221A600E4B1A68B7
:1014EC00D0075CBF01221A600C4B1A68D1075CBF95
:1014FC0001221A600A4B1A68D2075CBF01221A60DB
:10150C00704700BF7805002074050020700500208E
:10151C006C05002068050020640500206005002093
:10152C005C050020244B1A68D0075CBF01221A60AE
:10153C00224B1A68D1075CBF01221A60204B1A6833
:10154C00D2075CBF01221A601E4B1A68D0075CBF21
:10155C0001221A601C4B1A68D1075CBF01221A6069
:10156C001A4B1A68D2075CBF01221A60184B1A6812
:10157C00D0075CBF01221A60164B1A68D1075CBFFA
:10158C0001221A60144B1A68D2075CBF01221A6040
:10159C00124B1A68D0075CBF01221A60104B1A68F4
:1015AC00D1075CBF01221A600E4B1A68D2075CBFD0
:1015BC0001221A60704700BFA8050020A405002076
:1015CC00A00500209C050020980500209405002013
:1015DC00900500208C050020880500208405002043
:1015EC00800500207C050020244B1A68D0075CBFC6
:1015FC0001221A60224B1A68D1075CBF01221A60C3
:10160C00204B1A68D2075CBF01221A601E4B1A6865
:10161C00D0075CBF01221A601C4B1A68D1075CBF53
:10162C0001221A601A4B1A68D2075CBF01221A6099
:10163C00184B1A68D0075CBF01221A60164B1A6847
:10164C00D1075CBF01221A60144B1A68D2075CBF29
:10165C0001221A60124B1A68D0075CBF01221A6073
:10166C00104B1A68D1075CBF01221A600E4B1A6826
:10167C00D2075CBF01221A60704700BFD80500205A
:10168C00D4050020D0050020CC050020C805002082
:10169C00C4050020C0050020BC050020B8050020B2
:1016AC00B4050020B0050020AC050020184B1A68CA
:1016BC00D1075CBF01221A60164B1A68D2075CBFB7
:1016CC0001221A60144B1A68D0075CBF01221A6001
:1016DC00124B1A68D1075CBF01221A60104B1A68B2
:1016EC00D2075CBF01221A600E4B1A68D0075CBF90
:1016FC0001221A600C4B1A68D1075CBF01221A60D8
:10170C000A4B1A68D2075CBF01221A60704700BFEF
:10171C00F8050020F4050020F0050020EC05002061
:10172C00E8050020E4050020E0050020DC05002091
:10173C0010B5054C13462CB10A4601460220AFF3F6
:10174C00008010BD204610BD0000000010B5431EE7
:10175C000A44914204D011F8014B03F8014FF8E709
:10176C0010BD03460244934202D003F8011BFAE772
:10177C007047000038B5124B05461C68A36BD3B9F3
:10178C001820FFF73DF843F20E33A06303804AF6AE
:10179C00CD33438041F2342383804EF26D63C3809A
:1017AC004DF6EC630381052343810B2383810122D6
:1017BC000023C0E90423A36B00221D615A6138BDCC
:1017CC006400002010F8012B11F8013B012A28BFFE
:1017DC009A42F7D0D01A7047034611F8012B03F840
:1017EC00012B002AF9D17047034613F8012B002A6C
:1017FC00FBD1181A013870471D000A085D000A0851
:10180C0089000A088D000A080000000066616C73EC
:10181C006500747275650070756244617461005383
:10182C00656E64696E673A20000A4552524F520A3F
:10183C00003C0A000A3E0041540041542B435049DD
:10184C004E3D323735330041542B4346554E3D31D6
:10185C000041542B43474143543D312C31004154FA
:10186C002B434744434F4E543D312C224950222C9C
:10187C002274656C656E6F722E736D6172742200CA
:10188C0041542B4347534F434B434F4E543D312C04
:10189C00224950222C2274656C656E6F722E736D0A
:1018AC00617274220041542B43534F434B534554A4
:1018BC00504E3D310041542B434750533D31004174
:1018CC00542B43475245473F0041542B4E45544FF0
:1018DC0050454E0041542B49504144445200415410
:1018EC002B434D51545453544152540041542B43A7
:1018FC004D515454414343513D302C20220041540E
:10190C002B434D515454434F4E4E4543543D302C74
:10191C00227463703A2F2F646174612E6A656E7342
:10192C00612E6E6F3A31383833222C39302C312CF1
:10193C0020226A616E6672653138222C202237783B
:10194C0062677833423365456A684665764E220095
:10195C006E61626F42C3A574446174612F0041547F
:10196C002B434D5154545041594C4F41443D302C14
:10197C0025640041542B434D515454544F5049430A
:10198C003D302C25640041542B434D51545450553B
:10199C00423D302C312C3630003A0041542B434818
:1019AC005454504143543D2264776565742E696FDD
:1019BC00222C38300047455420687474703A2F2F0D
:1019CC0064776565742E696F2F64776565742F660F
:1019DC006F722F003F6C617469747564653D0026ED
:1019EC006C6F6E6769747564653D00204854545083
:1019FC002F312E310A00486F73743A206477656575
:101A0C00742E696F0A00557365722D4167656E748B
:101A1C003A206D6F7A696C6C790A00436F6E74654D
:101A2C006E742D4C656E6774683A20300A006261E2
:101A3C0075640053657269616C005553425365724D
:101A4C0069616C31007479706500706172616D0050
:101A5C00636D6400696400686E64007374726D0079
:101A6C0066696C74006C766C0061646448616E64C9
:101A7C006C65720072656D6F766548616E646C653D
:101A8C007200656E756D48616E646C657273004AA8
:101A9C00534F4E53747265616D4C6F6748616E6441
:101AAC006C65720061707000253031307520005DFE
:101ABC0020002C200028293A2000205B00636F6452
:101ACC0065203D200025690064657461696C732094
:101ADC003D20000D0A0066006C6E00666E00636FA0
:101AEC0064650064657461696C006E6F6E6500748A
:101AFC007261636500696E666F007761726E006576
:101B0C0072726F720070616E696300616C6C005A66
:101B1C0000252B3033643A253032750025592D259C
:101B2C006D2D25645425483A254D3A2553257A00C8
:101B3C0061736374696D65000000000000000000B3
:101B4C00430D0A08330D0A08350D0A080000000081
:101B5C0000000000FD0D0A084D0E0A085B0E0A0875
:101B6C006D0A0A08390E0A08FF0D0A08150E0A0834
:101B7C00470E0A082B0E0A08F90D0A08000000008F
:101B8C00000000009D0F0A08ED0F0A08FB0F0A0861
:101B9C006D0A0A08B10F0A08D30F0A08BF0F0A080A
:101BAC00E70F0A089F0F0A08A30F0A08000000009D
:101BBC0000000000AD100A08F7100A08CF100A0840
:101BCC00AF100A08D7100A08DF100A08E7100A0835
:101BDC00EF100A080000000000000000C7110A08FE
:101BEC00BD110A08B3110A0831110A08310B0A0891
:101BFC00A7110A089B110A0893110A0889110A08EF
:101C0C007F110A083B110A080000000000000000C8
:101C1C00E5110A08EF110A08F9110A0803120A085B
:101C2C000D120A0819120A0825120A0831120A089C
:101C3C0039120A0843120A084D120A080000000063
:101C4C000000000000000000000000000000000088
:101C5C000000000000000000000000000000000078
:101C6C000000000000000000000000000000000068
:101C7C000000000000000000000000000000000058
:101C8C000000000000000000000000000000000048
:101C9C000000000000000000000000000000000038
:101CAC004300000069010A08AD040A0881080A080B
:101CBC003D0B0A084D0B0A08850B0A08D1110A08BE
:101CCC009D120A08B9130A08AD140A0831150A083E
:101CDC00F5150A08B9160A080000000000000000FB
:041CEC0000000000F4
:041CF00000000000F0
:101CF4003C1B0A08000000004C1C0A086C1C0A0863
:101D04008C1C0A0800000000000000000000000015
:101D140000000000AC1C0A080000000000000000E5
:101D240000000000000000000000000000000000AF
:101D3400000000000000000000000000000000009F
:101D4400000000000000000000000000000000008F
:081D5400000000000400002063
:101D5C00FFFFFFFF00000102030405060708090A44
:101D6C000B0C0D0E0F101112131415161718191A3F
:081D7C001B1C1D1E1F20280086
:041D84007856341247
:04000005080A001CC9
:00000001FF
